:1007D400464D20496E6974204F4B210A00464D2036
:1007E400496E6974204661696C210A00464D5F4672
:1007F4005245203D2025640A00464D5F525353491B
:10080400203D2025640A00464D5F564F4C203D2074
:0408140025580A0059
:0B099E00021722B0021500000114082F
:10068200120988D29912053850197BFF7A0779D45A
:100692001200657F587E021209717F587E0212098C
:1006A20071800B7BFF7A0779E112006580FEAF183B
:1006B200AE171208577BFF7A0779F0851731851834
:1006C200321200651208C98E158F167BFF7A0779E0
:1006D200FD851531851632120065AF141208947B20
:1006E200FF7A08790B8514311200657F647E00124F
:0406F200097180F713
:0509E1001209E6D2A19D
:0109E60022EE
:0F09AE00D2A0D2A11209E6C2A01209E6C2A1226C
:0C09CB00C2A0D2A11209E6D2A00209E6E7
:0A09D700A20192A01209E1C2A122C0
:0D09BD00D2A01209E1A2A09201C2A1A201E4
:0109CA00220A
:10094C007E08AD061EED6015EF30E704D2A08002E4
:10095C00C2A01209E1C2A1EF25E0FF80E51209BD9A
:04096C009200A20053
:010970002264
:1008FB007F08E4FED2A0AD071FED6014EE25E0FEED
:10090B00D2A11209E630A0010EC2A11209E680E6BF
:09091B00A20092011209D7AF06F7
:0109240022B0
:100971007D737C00ED1D70011C144C70F7EF1F702E
:06098100011E144E70EA95
:01098700224D
:10098800438920758DFD758BFDD28EC29FD29ED274
:060998009CD2AFD2AC229C
:100766002D2D2D2D2D67436869704944203D202588
:10077600782D2D2D2D2D0A00C00100000400C6ADD8
:10078600600042C6000000000000000000000000FB
:1007960000000000000000192A11B0422A11B831E9
:1007A600C0002A91940000A8C400F7CF2ADC806F0D
:1007B6004608008606610000109E23C804060E1C2B
:0E07C600000000000000000000000000000025
:0409A9000212000036
:0806F6008F2E8B2F8A30893111
:1006FE00E4F5341209AEE52EB401047F2180027FA9
:10070E002012094CE433F534E4F533E533C3953266
:10071E005040E52EB4011BE53214B53304D20080EF
:10072E0002C2001208FBAB2FAA30A931EF12046EE1
:10073E008011AB2FAA30A931120455FF12094CE4D7
:10074E0033F534053374012531F531E43530F530A8
:07075E0080B91209CBAF3492
:010765002271
:10053800E4F52278237C00FD7BFF7A0779C6FE7FED
:100548000A12042FE4F52DF508750902FB7A0079E3
:1005580008753202FF1206F68F227F327E001209DA
:10056800717B007A00792375320A7F011206F68FB3
:10057800227F327E00120971751200852B13E51354
:10058800F512E52CF5137BFF7A077966851231851C
:100598001332120065E51364087004E5126458709C
:1005A8003EF52DE52D90077E93FF7408252DF8A6BE
:1005B80007052DE52DB408EB7BFF7A07797E7532A8
:1005C80002E4FF1206F68F227F587E021209717B21
:1005D800FF7A07797E753248E4FF1206F68F227F8C
:0D05E800327E00120971E5226002C322D3A9
:0105F50022E3
:10081800E50B540CFD70059021FC800BBD04028093
:1008280003BD0803901DB0E50B5403FD70047B0A5B
:10083800800CBD01047B0A8005BD02027B05C3EF65
:0E0848009582FFEE9583FEEBFD7C001204808E
:01085600227F
:10085700120818AD07AC06430880ED7802CEC31323
:10086700CE13D8F9F50AED5403C4333354C04410FA
:10087700FFE50B540F4FF50B7B007A0079087532B3
:0D08870004E4FF1206F67F327E00020971C4
:1008C90078227C007D007BFF7A0779D07E007F0447
:1008D90012042F7B007A0079227532047F011206F7
:1008E900F67F327E00120971E524C3137E00547F1E
:0108F900FFFF
:0108FA0022DB
:10089400E4FE74082EF8E6FD74222EF8A6050EBEBA
:1008A40008F0EF540FFFE52954F04FF5295325EFD5
:1008B4007B007A007922753208E4FF1206F67F3253
:0508C4007E0002097135
:030000000205F600
:0C05F600787FE4F6D8FD75814102063DD7
:10035F00E709F608DFFA8046E709F208DFFA803E80
:10036F0088828C83E709F0A3DFFA8032E309F6086D
:10037F00DFFA8078E309F208DFFA807088828C83D5
:10038F00E309F0A3DFFA806489828A83E0A3F60889
:10039F00DFFA805889828A83E0A3F208DFFA804C63
:1003AF0080D280FA80C680D4806980F2803380103A
:1003BF0080A680EA809A80A880DA80E280CA8033A3
:1003CF0089828A83ECFAE493A3C8C582C8CCC5831B
:1003DF00CCF0A3C8C582C8CCC583CCDFE9DEE780EB
:1003EF000D89828A83E493A3F608DFF9ECFAA9F06A
:1003FF00EDFB2289828A83ECFAE0A3C8C582C8CCC0
:10040F00C583CCF0A3C8C582C8CCC583CCDFEADED8
:10041F00E880DB89828A83E493A3F208DFF980CC3A
:10042F0088F0EF60010E4E60C388F0ED2402B40433
:10043F000050B9F582EB2402B4040050AF232345DA
:06044F0082239003AF734D
:10045500BB010689828A83E0225002E722BBFE02A5
:09046500E32289828A83E49322D8
:10046E00BB010689828A83F0225002F722BBFE016D
:02047E00F32267
:10048000BC000BBE0029EF8DF084FFADF022E4CC60
:10049000F875F008EF2FFFEE33FEEC33FCEE9DEC29
:1004A000984005FCEE9DFE0FD5F0E9E4CEFD22ED6F
:1004B000F8F5F0EE8420D21CFEADF075F008EF2FB9
:1004C000FFED33FD4007985006D5F0F222C398FDAA
:0504D0000FD5F0EA2247
:10000300E53D2431F8E6053D22782E3007027831AC
:10001300E475F0011205020204552000EB7F2ED295
:10002300008018EF540F2490D43440D4FF30040BD5
:10003300EF24BFB41A0050032461FFE53E600215AC
:100043003E0541E5417002054030070D782EE47509
:10005300F001120502EF02046E0209257403D207B0
:100063008003E4C207F53D8B2E8A2F8930E4F53EE9
:10007300F540F541E53E60077F2012003E80F575AF
:100083003FFFC201C200C202C203C205C206C208C8
:1000930012000CFF700D3007057F0012004FAF41B7
:1000A300AE4022B4255FC2D5C20412000CFF24D097
:1000B300B40A00501A75F00A783E30D50508B6FF29
:1000C3000106C6A426F620D5047002D20380D924E3
:1000D300CFB41A00EF5004C2E5D20402024FD2019A
:1000E30080C6D20080C0D20280BCD2D580BAD205ED
:1000F30080B47F2012003E2002077401B53E004009
:10010300F1120003FF12003E020077D208D20680EC
:1001130095120003FB120003FA120003F94A4B7015
:100123000679207A037BFF20022EE53E602A7E00BB
:100133008E827583001204D560060EEE653F70F063
:10014300C2D5EBC0E0EAC0E0E9C0E0EE120296D00F
:10015300E0F9D0E0FAD0E0FB120455FF60AAEBC04F
:10016300E0EAC0E0E9C0E012003ED0E02401F9D0AB
:10017300E03400FAD0E0FBE53F0460DCD53FD980F2
:10018300877BFF7A027992D202809C791080027970
:1001930008C206C2088008D2D5790A8004790AC247
:1001A300D5E53F047002F53FE4FAFDFEFF120003BC
:1001B300FC7B08200113120003FD7B1030000A12A0
:1001C3000003FE120003FF7B20EC3382D592D5504F
:1001D30013C3E43000069FFFE49EFEE42001039D69
:1001E300FDE49CFCE4CBF8C201EC700CCFCECDCC8B
:1001F300E824F8F870F38017C3EF33FFEE33FEED16
:1002030033FDEC33FCEB33FB994002FB0FD8E9EBF6
:10021300300105F8D0E0C448B201C0E00AEC4D4E0D
:100223004F78207B0070C2EAB53F0040BCC0E012AB
:100233000298D0F0D0E0200104C4C0E0C4B201C0F1
:10024300F0120027D0F0D5F0EB020077120512016F
:100253001453018E5800E54C00E14201924F019A7C
:0F02630044019A4900FA4301A0550184460184E1
:100272004501844703405000E92D00ED2E01102B6B
:1002820000F123010E2003292A00A94800000108D9
:100292003F3F3F00790AA2D5200314300509B91067
:1002A200020404B9080104A2D52006025001042068
:1002B20002689202B53E005034C0E07F203003193C
:1002C2007F30A20272067205500F1202EFC202C202
:1002D20006C205C2087F30800F300503E9C0E01274
:1002E200003E300503D0E0F9D0E0B53ECC30051732
:1002F2007F30B9100C12003E7F583004077F78809F
:1003020003B9080312003E3002057F2D02003E7F32
:10031200202008F87F2B2006F322920280CF286E3D
:10032200756C6C2900D2011200033001F8C2017809
:100332003E30D50108F60200A92D5043495812005B
:10034200032403B405004001E490033B9312002F01
:0D035200743A12002FD203753E0402018E92
:10060200020682E493A3F8E493A34003F68001F286
:1006120008DFF48029E493A3F85407240CC8C333F9
:10062200C4540F4420C8834004F456800146F6DFC8
:10063200E4800B010204081020408090099EE47EB1
:10064200019360BCA3FF543F30E509541FFEE493BD
:10065200A360010ECF54C025E060A840B8E493A384
:10066200FAE493A3F8E493A3C8C582C8CAC583CAAF
:10067200F0A3C8C582C8CAC583CADFE9DEE780BE67
:0109AD000049
:1004D500BB010CE58229F582E5833AF583E02250DC
:1004E50006E92582F8E622BBFE06E92582F8E22226
:0D04F500E58229F582E5833AF583E4932240
:10050200FAE6FB0808E6F925F0F618E6CA3AF622FA
:10051200D083D082F8E4937012740193700DA3A378
:1005220093F8740193F5828883E47374029368608C
:06053200EFA3A3A380DF8C
:10092500EFB40A07740D120930740A309811A899AA
:10093500B8130CC2983098FDA899C298B811F63032
:0709450099FDC299F599220A
:00000001FF
